{
  "contractName": "Entrance",
  "abi": [
    {
      "inputs": [
        {
          "internalType": "address",
          "name": "",
          "type": "address"
        }
      ],
      "name": "player",
      "outputs": [
        {
          "internalType": "address",
          "name": "targetAddress",
          "type": "address"
        },
        {
          "internalType": "bool",
          "name": "result",
          "type": "bool"
        }
      ],
      "stateMutability": "view",
      "type": "function"
    },
    {
      "inputs": [
        {
          "internalType": "address",
          "name": "_player",
          "type": "address"
        }
      ],
      "name": "getResult",
      "outputs": [
        {
          "internalType": "bool",
          "name": "",
          "type": "bool"
        }
      ],
      "stateMutability": "view",
      "type": "function"
    }
  ],
  "bytecode": "0x60806040526000600160006101000a81548173ffffffffffffffffffffffffffffffffffffffff021916908373ffffffffffffffffffffffffffffffffffffffff16021790555034801561005257600080fd5b50610205806100626000396000f3fe608060405234801561001057600080fd5b50600436106100365760003560e01c8063446a37e01461003b5780634c54e1b514610097575b600080fd5b61007d6004803603602081101561005157600080fd5b81019080803573ffffffffffffffffffffffffffffffffffffffff169060200190929190505050610126565b604051808215151515815260200191505060405180910390f35b6100d9600480360360208110156100ad57600080fd5b81019080803573ffffffffffffffffffffffffffffffffffffffff16906020019092919050505061017e565b604051808373ffffffffffffffffffffffffffffffffffffffff1673ffffffffffffffffffffffffffffffffffffffff168152602001821515151581526020019250505060405180910390f35b60008060008373ffffffffffffffffffffffffffffffffffffffff1673ffffffffffffffffffffffffffffffffffffffff16815260200190815260200160002060000160149054906101000a900460ff169050919050565b60006020528060005260406000206000915090508060000160009054906101000a900473ffffffffffffffffffffffffffffffffffffffff16908060000160149054906101000a900460ff1690508256fea2646970667358221220b171fa722966c8f00a3b0ff120b117ab533cac7a8ab69c296b8fe58a880ed0a464736f6c63430006020033",
  "source": "pragma solidity 0.6.2;\n\ninterface playerContract {\n    function setData(address) external returns (bool);\n}\n\n/**\n* @dev Player has to create a contract that includes a function setData(),\n*      this function will receive a randomly generated address.\n*      The player has to send any amount of ether to that address.\n*/\n\ncontract Entrance {\n\n  struct playerStruct {\n    address  targetAddress;\n    bool result;\n  }\n  mapping (address => playerStruct) public player;\n  playerContract usr = playerContract (0x0);\n\n\n  function ent_0 (address _playerContractAddress) internal returns (bool){\n    setInterface(_playerContractAddress);\n    player[msg.sender].targetAddress = randomAddress();\n    usr.setData(player[msg.sender].targetAddress);\n    require (address(player[msg.sender].targetAddress).balance > 0,\"Target balance should be > than 0\");\n    player[msg.sender].result = true;\n  }\n\n  function setInterface (address _playerContractAddress) private {\n      usr = playerContract(_playerContractAddress);\n  }\n\n  function randomAddress () private view returns (address){\n      return address(uint160(uint256(now)));\n  }\n\n  function getResult (address _player) external view returns (bool) {\n    return player[_player].result;\n  }\n}\n",
  "sourcePath": "/Users/gupadhyaya/go/src/github.com/harmony-one/IotDevsGame/contracts/Game/Levels/Level_1.sol",
  "compiler": {
    "name": "solc",
    "version": "0.6.2+commit.bacdbe57.Emscripten.clang"
  },
  "schemaVersion": "3.4.1",
  "updatedAt": "2021-07-28T14:06:15.798Z",
  "devdoc": {
    "details": "Player has to create a contract that includes a function setData(),     this function will receive a randomly generated address.     The player has to send any amount of ether to that address.",
    "methods": {}
  },
  "userdoc": {
    "methods": {}
  }
}