{
  "contractName": "TakeOwneship",
  "abi": [
    {
      "inputs": [],
      "stateMutability": "nonpayable",
      "type": "constructor"
    },
    {
      "inputs": [],
      "name": "owner",
      "outputs": [
        {
          "internalType": "address",
          "name": "",
          "type": "address"
        }
      ],
      "stateMutability": "view",
      "type": "function"
    },
    {
      "inputs": [],
      "name": "deposit",
      "outputs": [],
      "stateMutability": "payable",
      "type": "function"
    },
    {
      "inputs": [],
      "name": "claimOwnership",
      "outputs": [],
      "stateMutability": "nonpayable",
      "type": "function"
    }
  ],
  "bytecode": "0x608060405234801561001057600080fd5b50336000806101000a81548173ffffffffffffffffffffffffffffffffffffffff021916908373ffffffffffffffffffffffffffffffffffffffff1602179055506103a9806100606000396000f3fe6080604052600436106100345760003560e01c80634e71e0c8146100395780638da5cb5b14610050578063d0e30db0146100a7575b600080fd5b34801561004557600080fd5b5061004e6100b1565b005b34801561005c57600080fd5b5061006561014e565b604051808273ffffffffffffffffffffffffffffffffffffffff1673ffffffffffffffffffffffffffffffffffffffff16815260200191505060405180910390f35b6100af610173565b005b67016345785d8a0000600160003373ffffffffffffffffffffffffffffffffffffffff1673ffffffffffffffffffffffffffffffffffffffff168152602001908152602001600020541161010457600080fd5b336000806101000a81548173ffffffffffffffffffffffffffffffffffffffff021916908373ffffffffffffffffffffffffffffffffffffffff16021790555061014c61020a565b565b6000809054906101000a900473ffffffffffffffffffffffffffffffffffffffff1681565b6101c534600160003373ffffffffffffffffffffffffffffffffffffffff1673ffffffffffffffffffffffffffffffffffffffff168152602001908152602001600020546102eb90919063ffffffff16565b600160003373ffffffffffffffffffffffffffffffffffffffff1673ffffffffffffffffffffffffffffffffffffffff16815260200190815260200160002081905550565b3373ffffffffffffffffffffffffffffffffffffffff166000809054906101000a900473ffffffffffffffffffffffffffffffffffffffff1673ffffffffffffffffffffffffffffffffffffffff161461026357600080fd5b3373ffffffffffffffffffffffffffffffffffffffff166108fc600160003373ffffffffffffffffffffffffffffffffffffffff1673ffffffffffffffffffffffffffffffffffffffff168152602001908152602001600020549081150290604051600060405180830381858888f193505050501580156102e8573d6000803e3d6000fd5b50565b600080828401905083811015610369576040517f08c379a000000000000000000000000000000000000000000000000000000000815260040180806020018281038252601b8152602001807f536166654d6174683a206164646974696f6e206f766572666c6f77000000000081525060200191505060405180910390fd5b809150509291505056fea2646970667358221220569f68248c834cb9e605b8b16b80c6cf5a0edc8b0a540b3c0a129ad2bec33c6e64736f6c63430006020033",
  "source": "pragma solidity 0.6.2;\n\nimport \"@openzeppelin/contracts/math/SafeMath.sol\";\n\ncontract TakeOwneship {\n\n  using SafeMath for uint256;\n\n  address public owner;\n  mapping (address => uint256) deposits;\n\n  constructor () public {\n    owner = msg.sender;\n  }\n\n  modifier onlyOwners () {\n    require (owner == msg.sender);\n    _;\n  }\n\n  function deposit () public payable {\n    deposits[msg.sender] = deposits[msg.sender].add(msg.value);\n  }\n\n  function _withdraw () private onlyOwners {\n    msg.sender.transfer(deposits[msg.sender]);\n  }\n\n  function claimOwnership () public {\n    require (deposits[msg.sender] > 0.1 ether);\n    owner = msg.sender;\n    _withdraw();\n  }\n}\n",
  "sourcePath": "/Users/gupadhyaya/go/src/github.com/harmony-one/IotDevsGame/contracts/Game/Levels/Level_0.sol",
  "compiler": {
    "name": "solc",
    "version": "0.6.2+commit.bacdbe57.Emscripten.clang"
  },
  "schemaVersion": "3.4.1",
  "updatedAt": "2021-07-28T14:06:15.796Z",
  "devdoc": {
    "methods": {}
  },
  "userdoc": {
    "methods": {}
  }
}