{
  "contractName": "TestERC20Deployer",
  "abi": [
    {
      "inputs": [],
      "name": "newInstance",
      "outputs": [
        {
          "internalType": "contract TestERC20",
          "name": "",
          "type": "address"
        }
      ],
      "stateMutability": "nonpayable",
      "type": "function"
    },
    {
      "inputs": [
        {
          "internalType": "address",
          "name": "_instance",
          "type": "address"
        },
        {
          "internalType": "address",
          "name": "_player",
          "type": "address"
        }
      ],
      "name": "check",
      "outputs": [
        {
          "internalType": "bool",
          "name": "",
          "type": "bool"
        }
      ],
      "stateMutability": "nonpayable",
      "type": "function"
    }
  ],
  "bytecode": "0x608060405234801561001057600080fd5b506102c2806100206000396000f3fe608060405234801561001057600080fd5b50600436106100365760003560e01c80635219cfa51461003b578063b3154db014610085575b600080fd5b610043610101565b604051808273ffffffffffffffffffffffffffffffffffffffff1673ffffffffffffffffffffffffffffffffffffffff16815260200191505060405180910390f35b6100e76004803603604081101561009b57600080fd5b81019080803573ffffffffffffffffffffffffffffffffffffffff169060200190929190803573ffffffffffffffffffffffffffffffffffffffff169060200190929190505050610136565b604051808215151515815260200191505060405180910390f35b600080604051610110906101cd565b604051809103906000f08015801561012c573d6000803e3d6000fd5b5090508091505090565b600080839050600115158173ffffffffffffffffffffffffffffffffffffffff16639d9a7fe96040518163ffffffff1660e01b815260040160206040518083038186803b15801561018657600080fd5b505afa15801561019a573d6000803e3d6000fd5b505050506040513d60208110156101b057600080fd5b810190808051906020019092919050505015151491505092915050565b60b3806101da8339019056fe6080604052348015600f57600080fd5b5060958061001e6000396000f3fe6080604052348015600f57600080fd5b506004361060285760003560e01c80639d9a7fe914602d575b600080fd5b6033604d565b604051808215151515815260200191505060405180910390f35b6000809054906101000a900460ff168156fea2646970667358221220b433a3404eedb8d82709393f08db795bebedf70b4bf96e5b4afb3879ee9c578564736f6c63430006020033a2646970667358221220fd438d1d9943d5852ea8a00d161e9870a419954bc889ea4e02742e220ee6932564736f6c63430006020033",
  "source": "pragma solidity 0.6.2;\n\nimport './Level_5.sol';\n\ncontract TestERC20Deployer {\n\n  function newInstance () public returns (TestERC20) {\n    TestERC20 instance = new TestERC20();\n    return instance;\n  }\n\n  function check (address _instance, address _player) public returns (bool) {\n    TestERC20 instance = TestERC20(_instance);\n    return instance.completed() == true;\n  }\n}\n",
  "sourcePath": "/Users/gupadhyaya/go/src/github.com/harmony-one/IotDevsGame/contracts/Game/Levels/Level_5_Deployer.sol",
  "compiler": {
    "name": "solc",
    "version": "0.6.2+commit.bacdbe57.Emscripten.clang"
  },
  "schemaVersion": "3.4.1",
  "updatedAt": "2021-07-28T14:11:53.377Z",
  "networkType": "ethereum",
  "devdoc": {
    "methods": {}
  },
  "userdoc": {
    "methods": {}
  }
}