{
  "contractName": "TheGreatHall",
  "abi": [
    {
      "anonymous": false,
      "inputs": [
        {
          "indexed": false,
          "internalType": "uint256",
          "name": "",
          "type": "uint256"
        }
      ],
      "name": "random",
      "type": "event"
    },
    {
      "inputs": [
        {
          "internalType": "address",
          "name": "",
          "type": "address"
        }
      ],
      "name": "timer",
      "outputs": [
        {
          "internalType": "uint256",
          "name": "",
          "type": "uint256"
        }
      ],
      "stateMutability": "view",
      "type": "function"
    },
    {
      "inputs": [],
      "name": "unlockA",
      "outputs": [],
      "stateMutability": "nonpayable",
      "type": "function"
    },
    {
      "inputs": [
        {
          "internalType": "uint8",
          "name": "_n",
          "type": "uint8"
        }
      ],
      "name": "unlockB",
      "outputs": [],
      "stateMutability": "nonpayable",
      "type": "function"
    },
    {
      "inputs": [],
      "name": "r",
      "outputs": [],
      "stateMutability": "nonpayable",
      "type": "function"
    },
    {
      "inputs": [
        {
          "internalType": "uint256",
          "name": "_n",
          "type": "uint256"
        }
      ],
      "name": "unlockC",
      "outputs": [],
      "stateMutability": "nonpayable",
      "type": "function"
    },
    {
      "inputs": [
        {
          "internalType": "address",
          "name": "_player",
          "type": "address"
        }
      ],
      "name": "reset",
      "outputs": [],
      "stateMutability": "nonpayable",
      "type": "function"
    },
    {
      "inputs": [
        {
          "internalType": "address",
          "name": "_player",
          "type": "address"
        }
      ],
      "name": "getTimer",
      "outputs": [
        {
          "internalType": "uint256",
          "name": "",
          "type": "uint256"
        }
      ],
      "stateMutability": "view",
      "type": "function"
    }
  ],
  "bytecode": "0x608060405234801561001057600080fd5b506107af806100206000396000f3fe608060405234801561001057600080fd5b506004361061007d5760003560e01c80636b8ab97d1161005b5780636b8ab97d146101125780636c8ae38c14610156578063c707def614610160578063ec45787c146101915761007d565b80631531f016146100825780632044ea5a146100da578063534d4ec314610108575b600080fd5b6100c46004803603602081101561009857600080fd5b81019080803573ffffffffffffffffffffffffffffffffffffffff1690602001909291905050506101e9565b6040518082815260200191505060405180910390f35b610106600480360360208110156100f057600080fd5b8101908080359060200190929190505050610232565b005b610110610346565b005b6101546004803603602081101561012857600080fd5b81019080803573ffffffffffffffffffffffffffffffffffffffff1690602001909291905050506103f3565b005b61015e610568565b005b61018f6004803603602081101561017657600080fd5b81019080803560ff1690602001909291905050506105f5565b005b6101d3600480360360208110156101a757600080fd5b81019080803573ffffffffffffffffffffffffffffffffffffffff169060200190929190505050610717565b6040518082815260200191505060405180910390f35b6000600560008373ffffffffffffffffffffffffffffffffffffffff1673ffffffffffffffffffffffffffffffffffffffff168152602001908152602001600020549050919050565b6000600160003373ffffffffffffffffffffffffffffffffffffffff1673ffffffffffffffffffffffffffffffffffffffff16815260200190815260200160002060009054906101000a900460ff1660ff16141561028f57600080fd5b600460003373ffffffffffffffffffffffffffffffffffffffff1673ffffffffffffffffffffffffffffffffffffffff1681526020019081526020016000205481146102e2576102dd610568565b610343565b6102ea61072f565b6001600260003373ffffffffffffffffffffffffffffffffffffffff1673ffffffffffffffffffffffffffffffffffffffff16815260200190815260200160002060006101000a81548160ff0219169083151502179055505b50565b67016345785d8a0000600360003373ffffffffffffffffffffffffffffffffffffffff1673ffffffffffffffffffffffffffffffffffffffff168152602001908152602001600020541161039957600080fd5b60326000803373ffffffffffffffffffffffffffffffffffffffff1673ffffffffffffffffffffffffffffffffffffffff16815260200190815260200160002060006101000a81548160ff021916908360ff160217905550565b6000808273ffffffffffffffffffffffffffffffffffffffff1673ffffffffffffffffffffffffffffffffffffffff16815260200190815260200160002060006101000a81549060ff0219169055600160008273ffffffffffffffffffffffffffffffffffffffff1673ffffffffffffffffffffffffffffffffffffffff16815260200190815260200160002060006101000a81549060ff0219169055600260008273ffffffffffffffffffffffffffffffffffffffff1673ffffffffffffffffffffffffffffffffffffffff16815260200190815260200160002060006101000a81549060ff0219169055600460008273ffffffffffffffffffffffffffffffffffffffff1673ffffffffffffffffffffffffffffffffffffffff16815260200190815260200160002060009055600560008273ffffffffffffffffffffffffffffffffffffffff1673ffffffffffffffffffffffffffffffffffffffff1681526020019081526020016000206000905550565b600060ff428161057457fe5b06905080600460003373ffffffffffffffffffffffffffffffffffffffff1673ffffffffffffffffffffffffffffffffffffffff168152602001908152602001600020819055507fb863bd3729546d4186efd003c567348f9deb7087f4632b9046c39adb8008c19f816040518082815260200191505060405180910390a150565b6000803373ffffffffffffffffffffffffffffffffffffffff1673ffffffffffffffffffffffffffffffffffffffff16815260200190815260200160002060009054906101000a900460ff1660ff168160ff161061065257600080fd5b60008160ff166000803373ffffffffffffffffffffffffffffffffffffffff1673ffffffffffffffffffffffffffffffffffffffff16815260200190815260200160002060009054906101000a900460ff1660ff16816106ae57fe5b0660ff16146106bc57600080fd5b80600160003373ffffffffffffffffffffffffffffffffffffffff1673ffffffffffffffffffffffffffffffffffffffff16815260200190815260200160002060006101000a81548160ff021916908360ff16021790555050565b60056020528060005260406000206000915090505481565b61012c4201600560003373ffffffffffffffffffffffffffffffffffffffff1673ffffffffffffffffffffffffffffffffffffffff1681526020019081526020016000208190555056fea26469706673582212201ab822adf2426fe778ebf9c2e915210563035573d618e1fed85776765d0eccfc64736f6c63430006020033",
  "source": "pragma solidity 0.6.2;\n\n/**\n* @dev Read the contract and unlock the next level;\n*/\n\ncontract TheGreatHall {\n\n  mapping (address => uint8) private doorLockA;\n  mapping (address => uint8) private doorLockB;\n  mapping (address => bool) private unlocked;\n  mapping (address => uint256) private receiver;\n  mapping (address => uint256) private randomN;\n  mapping (address => uint256) public timer;\n\n  event random (uint256);\n\n  function unlockA () public {\n    require (receiver[msg.sender] > 0.1 ether);\n    doorLockA[msg.sender] = 50;\n  }\n\n  function unlockB (uint8 _n) public {\n    require (_n < doorLockA[msg.sender]);\n\n    if (doorLockA[msg.sender] % _n != 0) {revert();}\n    doorLockB[msg.sender] = _n;\n  }\n\n  function r () public {\n    uint256 randomNumber = now%255;\n    randomN[msg.sender] = randomNumber;\n    emit random (randomNumber);\n  }\n\n  function unlockC (uint256 _n) public {\n    require (doorLockB[msg.sender] != 0);\n    if(_n != randomN[msg.sender]) {r();} else {\n      setTimer ();\n      unlocked[msg.sender] = true;\n    }\n  }\n\n  function setTimer () private {\n    timer[msg.sender] = now + 5 minutes;\n  }\n\n  function reset (address _player) external {\n    delete(doorLockA[_player]);\n    delete(doorLockB[_player]);\n    delete(unlocked[_player]);\n    delete(randomN[_player]);\n    delete(timer[_player]);\n  }\n\n  function getTimer (address _player) external view returns (uint) {\n    return timer[_player];\n  }\n\n}\n",
  "sourcePath": "/Users/gupadhyaya/go/src/github.com/harmony-one/IotDevsGame/contracts/Game/Levels/Level_2.sol",
  "compiler": {
    "name": "solc",
    "version": "0.6.2+commit.bacdbe57.Emscripten.clang"
  },
  "schemaVersion": "3.4.1",
  "updatedAt": "2021-07-28T14:06:15.807Z",
  "devdoc": {
    "details": "Read the contract and unlock the next level;",
    "methods": {}
  },
  "userdoc": {
    "methods": {}
  }
}