{
  "contractName": "WelcomeDeployer",
  "abi": [
    {
      "inputs": [],
      "name": "newInstance",
      "outputs": [
        {
          "internalType": "contract Welcome",
          "name": "",
          "type": "address"
        }
      ],
      "stateMutability": "nonpayable",
      "type": "function"
    },
    {
      "inputs": [
        {
          "internalType": "address",
          "name": "_instance",
          "type": "address"
        },
        {
          "internalType": "address",
          "name": "_player",
          "type": "address"
        }
      ],
      "name": "check",
      "outputs": [
        {
          "internalType": "bool",
          "name": "",
          "type": "bool"
        }
      ],
      "stateMutability": "nonpayable",
      "type": "function"
    }
  ],
  "bytecode": "0x608060405234801561001057600080fd5b50610506806100206000396000f3fe608060405234801561001057600080fd5b50600436106100365760003560e01c80635219cfa51461003b578063b3154db014610085575b600080fd5b610043610101565b604051808273ffffffffffffffffffffffffffffffffffffffff1673ffffffffffffffffffffffffffffffffffffffff16815260200191505060405180910390f35b6100e76004803603604081101561009b57600080fd5b81019080803573ffffffffffffffffffffffffffffffffffffffff169060200190929190803573ffffffffffffffffffffffffffffffffffffffff169060200190929190505050610136565b604051808215151515815260200191505060405180910390f35b600080604051610110906101f4565b604051809103906000f08015801561012c573d6000803e3d6000fd5b5090508091505090565b6000808390508273ffffffffffffffffffffffffffffffffffffffff168173ffffffffffffffffffffffffffffffffffffffff16638da5cb5b6040518163ffffffff1660e01b815260040160206040518083038186803b15801561019957600080fd5b505afa1580156101ad573d6000803e3d6000fd5b505050506040513d60208110156101c357600080fd5b810190808051906020019092919050505073ffffffffffffffffffffffffffffffffffffffff161491505092915050565b6102cf806102028339019056fe608060405234801561001057600080fd5b50336000806101000a81548173ffffffffffffffffffffffffffffffffffffffff021916908373ffffffffffffffffffffffffffffffffffffffff16021790555061026f806100606000396000f3fe608060405234801561001057600080fd5b506004361061004c5760003560e01c80633e1af783146100515780638da5cb5b1461007f578063aea89bf4146100c9578063cc8e2394146100d3575b600080fd5b61007d6004803603602081101561006757600080fd5b81019080803590602001909291905050506100f1565b005b61008761017f565b604051808273ffffffffffffffffffffffffffffffffffffffff1673ffffffffffffffffffffffffffffffffffffffff16815260200191505060405180910390f35b6100d16101a4565b005b6100db6101f2565b6040518082815260200191505060405180910390f35b80600160003373ffffffffffffffffffffffffffffffffffffffff1673ffffffffffffffffffffffffffffffffffffffff168152602001908152602001600020541461013c57600080fd5b336000806101000a81548173ffffffffffffffffffffffffffffffffffffffff021916908373ffffffffffffffffffffffffffffffffffffffff16021790555050565b6000809054906101000a900473ffffffffffffffffffffffffffffffffffffffff1681565b6000424201905080600160003373ffffffffffffffffffffffffffffffffffffffff1673ffffffffffffffffffffffffffffffffffffffff1681526020019081526020016000208190555050565b6000600160003373ffffffffffffffffffffffffffffffffffffffff1673ffffffffffffffffffffffffffffffffffffffff1681526020019081526020016000205490509056fea2646970667358221220ac641bc18bf25eac2888e7e489620f051d09e7efc7fe30096369868bfb493fc264736f6c63430006020033a26469706673582212206f85a7ef3fa74b8a4bad2203cd4f107447b0c84fc5e6948174ad7b04b0951be464736f6c63430006020033",
  "source": "pragma solidity 0.6.2;\n\nimport './0_Welcome.sol';\n\ncontract WelcomeDeployer {\n\n  function newInstance () public returns (Welcome) {\n    Welcome instance = new Welcome();\n    return instance;\n  }\n\n  function check (address _instance, address _player) public returns (bool) {\n    Welcome instance = Welcome(_instance);\n    return instance.owner() == _player;\n  }\n\n}\n",
  "sourcePath": "/Users/gupadhyaya/go/src/github.com/harmony-one/IotDevsGame/contracts/Game/Levels/0_Welcome_Deployer.sol",
  "compiler": {
    "name": "solc",
    "version": "0.6.2+commit.bacdbe57.Emscripten.clang"
  },
  "schemaVersion": "3.4.1",
  "updatedAt": "2021-07-28T14:11:53.364Z",
  "networkType": "ethereum",
  "devdoc": {
    "methods": {}
  },
  "userdoc": {
    "methods": {}
  }
}